{
  "address": "0xdFB5beE50B4D87cC65F1Ef9c7b87A09a9D540730",
  "abi": [
    {
      "inputs": [],
      "name": "_num",
      "outputs": [
        {
          "internalType": "uint256",
          "name": "",
          "type": "uint256"
        }
      ],
      "stateMutability": "view",
      "type": "function"
    },
    {
      "inputs": [
        {
          "internalType": "address",
          "name": "contrt",
          "type": "address"
        },
        {
          "internalType": "uint256",
          "name": "number",
          "type": "uint256"
        }
      ],
      "name": "callSetNumber",
      "outputs": [],
      "stateMutability": "nonpayable",
      "type": "function"
    },
    {
      "inputs": [
        {
          "internalType": "address",
          "name": "contrt",
          "type": "address"
        },
        {
          "internalType": "uint256",
          "name": "number",
          "type": "uint256"
        }
      ],
      "name": "delegatecallSetNumber",
      "outputs": [],
      "stateMutability": "nonpayable",
      "type": "function"
    },
    {
      "inputs": [],
      "name": "owner",
      "outputs": [
        {
          "internalType": "address",
          "name": "",
          "type": "address"
        }
      ],
      "stateMutability": "view",
      "type": "function"
    }
  ],
  "transactionHash": "0x1395178d296184d18dcce01c1bccb1b0d63ebc3fae242edce29df0b3868ba92d",
  "args": [],
  "numDeployments": 4,
  "solcInputHash": "e75c269f74c38e5200ba0e8d266d6b40",
  "bytecode": "0x608060405234801561001057600080fd5b5061028f806100206000396000f3fe608060405234801561001057600080fd5b506004361061004c5760003560e01c80638da5cb5b1461005157806398a0a71c14610081578063b3d797b114610096578063d68cfc14146100a9575b600080fd5b600054610064906001600160a01b031681565b6040516001600160a01b0390911681526020015b60405180910390f35b61009461008f3660046101f2565b6100c0565b005b6100946100a43660046101f2565b610160565b6100b260015481565b604051908152602001610078565b816001600160a01b031662989680826040516024016100e191815260200190565b60408051601f198184030181529181526020820180516001600160e01b0316633fb5c1cb60e01b17905251610116919061022a565b60006040518083038160008787f1925050503d8060008114610154576040519150601f19603f3d011682016040523d82523d6000602084013e610159565b606091505b5050505050565b816001600160a01b0316629896808260405160240161018191815260200190565b60408051601f198184030181529181526020820180516001600160e01b0316633fb5c1cb60e01b179052516101b6919061022a565b6000604051808303818686f4925050503d8060008114610154576040519150601f19603f3d011682016040523d82523d6000602084013e610159565b6000806040838503121561020557600080fd5b82356001600160a01b038116811461021c57600080fd5b946020939093013593505050565b6000825160005b8181101561024b5760208186018101518583015201610231565b50600092019182525091905056fea264697066735822122093aea2b92621c89bd51853e6391ea305918b84a5310f304da3aef69d2b11c33964736f6c63430008140033",
  "devdoc": {
    "kind": "dev",
    "methods": {},
    "version": 1
  },
  "userdoc": {
    "kind": "user",
    "methods": {},
    "version": 1
  },
  "storageLayout": {
    "storage": [
      {
        "astId": 82,
        "contract": "contracts/A.sol:A",
        "label": "owner",
        "offset": 0,
        "slot": "0",
        "type": "t_address"
      },
      {
        "astId": 84,
        "contract": "contracts/A.sol:A",
        "label": "_num",
        "offset": 0,
        "slot": "1",
        "type": "t_uint256"
      }
    ],
    "types": {
      "t_address": {
        "encoding": "inplace",
        "label": "address",
        "numberOfBytes": "20"
      },
      "t_uint256": {
        "encoding": "inplace",
        "label": "uint256",
        "numberOfBytes": "32"
      }
    }
  }
}