{
  "address": "0xf46904E62cE564638692BB3e5c63707E00aa99AD",
  "abi": [
    {
      "inputs": [
        {
          "internalType": "address",
          "name": "tokenAddress",
          "type": "address"
        }
      ],
      "stateMutability": "nonpayable",
      "type": "constructor"
    },
    {
      "inputs": [],
      "name": "addAddress",
      "outputs": [],
      "stateMutability": "nonpayable",
      "type": "function"
    },
    {
      "inputs": [],
      "name": "getSum",
      "outputs": [
        {
          "internalType": "uint256",
          "name": "",
          "type": "uint256"
        }
      ],
      "stateMutability": "view",
      "type": "function"
    },
    {
      "inputs": [],
      "name": "multiTransferToken",
      "outputs": [],
      "stateMutability": "nonpayable",
      "type": "function"
    },
    {
      "inputs": [
        {
          "internalType": "uint256",
          "name": "",
          "type": "uint256"
        }
      ],
      "name": "s_transferAddress",
      "outputs": [
        {
          "internalType": "address",
          "name": "",
          "type": "address"
        }
      ],
      "stateMutability": "view",
      "type": "function"
    },
    {
      "inputs": [
        {
          "internalType": "uint256",
          "name": "",
          "type": "uint256"
        }
      ],
      "name": "s_transferTokenAmount",
      "outputs": [
        {
          "internalType": "uint256",
          "name": "",
          "type": "uint256"
        }
      ],
      "stateMutability": "view",
      "type": "function"
    },
    {
      "inputs": [],
      "name": "tokenContract",
      "outputs": [
        {
          "internalType": "address",
          "name": "",
          "type": "address"
        }
      ],
      "stateMutability": "view",
      "type": "function"
    }
  ],
  "transactionHash": "0x9c1fff7671a0a27051869da3954cf06630a510e21b24327229bcb097bfe1cc48",
  "args": [
    "0x59e144DE9B86795AB8eB8F4211744Ff97E5BC21e"
  ],
  "numDeployments": 1,
  "solcInputHash": "3f4aa865459d9b8b8f0ed0849a9fe19a",
  "bytecode": "0x608060405234801561001057600080fd5b5060405161058138038061058183398101604081905261002f91610054565b600280546001600160a01b0319166001600160a01b0392909216919091179055610084565b60006020828403121561006657600080fd5b81516001600160a01b038116811461007d57600080fd5b9392505050565b6104ee806100936000396000f3fe608060405234801561001057600080fd5b50600436106100625760003560e01c80630ee969531461006757806355a373d6146100dd578063569c5f6d1461010d578063641bd719146101235780639591960a1461012b578063eaa105e61461013e575b600080fd5b6100db60008054600181810183557f290decd9548b62a8d60345a988386fc84ba6bc95484008f6362f93160ef3e56390910180546001600160a01b0319163317905580548082018255915260647fb10e2d527612073b26eecdfd717e6a320cf44b4afac2b0732d9fcbe2b7fa0cf690910155565b005b6002546100f0906001600160a01b031681565b6040516001600160a01b0390911681526020015b60405180910390f35b610115610151565b604051908152602001610104565b6100db6101a3565b6101156101393660046103ff565b6103b4565b6100f061014c3660046103ff565b6103d5565b600080805b60015481101561019d576001818154811061017357610173610418565b9060005260206000200154826101899190610444565b9150806101958161045d565b915050610156565b50919050565b600154600054146101ee5760405162461bcd60e51b815260206004820152601060248201526f1b195b99dd1a081b9bdd08195c5d585b60821b60448201526064015b60405180910390fd5b6002546001600160a01b03166000610204610151565b604051636eb1769f60e11b815233600482015230602482015290915081906001600160a01b0384169063dd62ed3e90604401602060405180830381865afa158015610253573d6000803e3d6000fd5b505050506040513d601f19601f820116820180604052508101906102779190610476565b10156102bc5760405162461bcd60e51b81526020600482015260146024820152730c2d8d8deeec2dcc6ca40dcdee840cadcdeeaced60631b60448201526064016101e5565b60005b6000548110156103af57826001600160a01b03166323b872dd33600084815481106102ec576102ec610418565b600091825260209091200154600180546001600160a01b03909216918690811061031857610318610418565b6000918252602090912001546040516001600160e01b031960e086901b1681526001600160a01b03938416600482015292909116602483015260448201526064016020604051808303816000875af1158015610378573d6000803e3d6000fd5b505050506040513d601f19601f8201168201806040525081019061039c919061048f565b50806103a78161045d565b9150506102bf565b505050565b600181815481106103c457600080fd5b600091825260209091200154905081565b600081815481106103e557600080fd5b6000918252602090912001546001600160a01b0316905081565b60006020828403121561041157600080fd5b5035919050565b634e487b7160e01b600052603260045260246000fd5b634e487b7160e01b600052601160045260246000fd5b808201808211156104575761045761042e565b92915050565b60006001820161046f5761046f61042e565b5060010190565b60006020828403121561048857600080fd5b5051919050565b6000602082840312156104a157600080fd5b815180151581146104b157600080fd5b939250505056fea26469706673582212205ca4f292be587c0ca951d8c536b9a4b6db4e3112f58e91c307bb81b9030074f464736f6c63430008140033",
  "devdoc": {
    "kind": "dev",
    "methods": {},
    "version": 1
  },
  "userdoc": {
    "kind": "user",
    "methods": {},
    "version": 1
  },
  "storageLayout": {
    "storage": [
      {
        "astId": 83,
        "contract": "contracts/AirDrop.sol:AirDrop",
        "label": "s_transferAddress",
        "offset": 0,
        "slot": "0",
        "type": "t_array(t_address)dyn_storage"
      },
      {
        "astId": 86,
        "contract": "contracts/AirDrop.sol:AirDrop",
        "label": "s_transferTokenAmount",
        "offset": 0,
        "slot": "1",
        "type": "t_array(t_uint256)dyn_storage"
      },
      {
        "astId": 88,
        "contract": "contracts/AirDrop.sol:AirDrop",
        "label": "tokenContract",
        "offset": 0,
        "slot": "2",
        "type": "t_address"
      }
    ],
    "types": {
      "t_address": {
        "encoding": "inplace",
        "label": "address",
        "numberOfBytes": "20"
      },
      "t_array(t_address)dyn_storage": {
        "base": "t_address",
        "encoding": "dynamic_array",
        "label": "address[]",
        "numberOfBytes": "32"
      },
      "t_array(t_uint256)dyn_storage": {
        "base": "t_uint256",
        "encoding": "dynamic_array",
        "label": "uint256[]",
        "numberOfBytes": "32"
      },
      "t_uint256": {
        "encoding": "inplace",
        "label": "uint256",
        "numberOfBytes": "32"
      }
    }
  }
}