{
  "address": "0x37c5D0ebBc7e6000BEdB1e9900Cb43AeE38907FB",
  "abi": [
    {
      "inputs": [],
      "name": "getNumber",
      "outputs": [
        {
          "internalType": "uint256",
          "name": "",
          "type": "uint256"
        }
      ],
      "stateMutability": "view",
      "type": "function"
    },
    {
      "inputs": [],
      "name": "getOwner",
      "outputs": [
        {
          "internalType": "address",
          "name": "",
          "type": "address"
        }
      ],
      "stateMutability": "view",
      "type": "function"
    },
    {
      "inputs": [],
      "name": "pay",
      "outputs": [],
      "stateMutability": "payable",
      "type": "function"
    },
    {
      "inputs": [
        {
          "internalType": "uint256",
          "name": "number",
          "type": "uint256"
        }
      ],
      "name": "setNumber",
      "outputs": [],
      "stateMutability": "nonpayable",
      "type": "function"
    },
    {
      "stateMutability": "payable",
      "type": "receive"
    }
  ],
  "transactionHash": "0xf1c288036be4bcc75adf9856c597f8d66ba0ad079141e01c0f979f25af7c0ca5",
  "args": [],
  "numDeployments": 4,
  "solcInputHash": "a53657ef04c2a0beaaa601ad46de9fe5",
  "bytecode": "0x608060405234801561001057600080fd5b5061010f806100206000396000f3fe608060405260043610603e5760003560e01c80631b9265b81460495780633fb5c1cb14604b578063893d20e8146079578063f2c9ecd81460a557600080fd5b36604457005b600080fd5b005b348015605657600080fd5b506049606236600460c1565b600155600080546001600160a01b03191633179055565b348015608457600080fd5b506000546040516001600160a01b0390911681526020015b60405180910390f35b34801560b057600080fd5b50600154604051908152602001609c565b60006020828403121560d257600080fd5b503591905056fea2646970667358221220853f5f143a58ac10635cc34feee8bd30731c93188c50775f2fdff811a6f4f71164736f6c63430008140033",
  "devdoc": {
    "kind": "dev",
    "methods": {},
    "version": 1
  },
  "userdoc": {
    "kind": "user",
    "methods": {},
    "version": 1
  },
  "storageLayout": {
    "storage": [
      {
        "astId": 82,
        "contract": "contracts/B.sol:B",
        "label": "owner",
        "offset": 0,
        "slot": "0",
        "type": "t_address"
      },
      {
        "astId": 84,
        "contract": "contracts/B.sol:B",
        "label": "_num",
        "offset": 0,
        "slot": "1",
        "type": "t_uint256"
      }
    ],
    "types": {
      "t_address": {
        "encoding": "inplace",
        "label": "address",
        "numberOfBytes": "20"
      },
      "t_uint256": {
        "encoding": "inplace",
        "label": "uint256",
        "numberOfBytes": "32"
      }
    }
  }
}