{
  "address": "0x49365909a1F6518f9058B6AfCc6b4fB75637f8f4",
  "abi": [
    {
      "inputs": [
        {
          "internalType": "address",
          "name": "_proxy",
          "type": "address"
        }
      ],
      "stateMutability": "nonpayable",
      "type": "constructor"
    },
    {
      "inputs": [],
      "name": "increment",
      "outputs": [],
      "stateMutability": "nonpayable",
      "type": "function"
    },
    {
      "inputs": [],
      "name": "proxy",
      "outputs": [
        {
          "internalType": "address",
          "name": "",
          "type": "address"
        }
      ],
      "stateMutability": "view",
      "type": "function"
    },
    {
      "inputs": [],
      "name": "value",
      "outputs": [
        {
          "internalType": "uint256",
          "name": "",
          "type": "uint256"
        }
      ],
      "stateMutability": "view",
      "type": "function"
    }
  ],
  "transactionHash": "0x7b37f71825e8d8850c9c85d8c9b4e5ca7df7b6933fc6f6757c85dd84adb7ed35",
  "args": [
    "0x86c66D19b87351c1AD7125889Bcb382f5baFABc7"
  ],
  "numDeployments": 3,
  "solcInputHash": "f439c683e1df7f5ad71bcd5fbfada60d",
  "bytecode": "0x608060405234801561001057600080fd5b5060405161024c38038061024c83398101604081905261002f91610054565b600080546001600160a01b0319166001600160a01b0392909216919091179055610084565b60006020828403121561006657600080fd5b81516001600160a01b038116811461007d57600080fd5b9392505050565b6101b9806100936000396000f3fe608060405234801561001057600080fd5b50600436106100415760003560e01c80633fa4f24514610046578063d09de08a14610062578063ec5568891461006c575b600080fd5b61004f60015481565b6040519081526020015b60405180910390f35b61006a610097565b005b60005461007f906001600160a01b031681565b6040516001600160a01b039091168152602001610059565b6000805460408051600481526024810182526020810180516001600160e01b031663684ef04560e11b17905290516001600160a01b03909216916100db919061013b565b6000604051808303816000865af19150503d8060008114610118576040519150601f19603f3d011682016040523d82523d6000602084013e61011d565b606091505b5091505080806020019051810190610135919061016a565b60015550565b6000825160005b8181101561015c5760208186018101518583015201610142565b506000920191825250919050565b60006020828403121561017c57600080fd5b505191905056fea264697066735822122013409c9614ac64373810c7e487eb4ae297b3dfb66a454451e1fd4ccf27569a4b64736f6c63430008140033",
  "devdoc": {
    "kind": "dev",
    "methods": {},
    "version": 1
  },
  "userdoc": {
    "kind": "user",
    "methods": {},
    "version": 1
  },
  "storageLayout": {
    "storage": [
      {
        "astId": 82,
        "contract": "contracts/Caller.sol:Caller",
        "label": "proxy",
        "offset": 0,
        "slot": "0",
        "type": "t_address"
      },
      {
        "astId": 84,
        "contract": "contracts/Caller.sol:Caller",
        "label": "value",
        "offset": 0,
        "slot": "1",
        "type": "t_uint256"
      }
    ],
    "types": {
      "t_address": {
        "encoding": "inplace",
        "label": "address",
        "numberOfBytes": "20"
      },
      "t_uint256": {
        "encoding": "inplace",
        "label": "uint256",
        "numberOfBytes": "32"
      }
    }
  }
}