{
  "address": "0x5842D6EA1cF25D14aD98a8D99BFA7aB0B06e1996",
  "abi": [
    {
      "inputs": [],
      "stateMutability": "nonpayable",
      "type": "constructor"
    },
    {
      "anonymous": false,
      "inputs": [
        {
          "indexed": false,
          "internalType": "address",
          "name": "to",
          "type": "address"
        }
      ],
      "name": "SendEtherFromCall",
      "type": "event"
    },
    {
      "inputs": [],
      "name": "donate",
      "outputs": [],
      "stateMutability": "payable",
      "type": "function"
    },
    {
      "inputs": [
        {
          "internalType": "address",
          "name": "",
          "type": "address"
        }
      ],
      "name": "donateAddress",
      "outputs": [
        {
          "internalType": "uint256",
          "name": "",
          "type": "uint256"
        }
      ],
      "stateMutability": "view",
      "type": "function"
    },
    {
      "inputs": [
        {
          "internalType": "address",
          "name": "_to",
          "type": "address"
        },
        {
          "internalType": "uint256",
          "name": "_amount",
          "type": "uint256"
        }
      ],
      "name": "getEtherFromCall",
      "outputs": [],
      "stateMutability": "nonpayable",
      "type": "function"
    },
    {
      "inputs": [
        {
          "internalType": "address payable",
          "name": "_to",
          "type": "address"
        },
        {
          "internalType": "uint256",
          "name": "_amount",
          "type": "uint256"
        }
      ],
      "name": "getEtherFromSend",
      "outputs": [],
      "stateMutability": "nonpayable",
      "type": "function"
    },
    {
      "inputs": [
        {
          "internalType": "address payable",
          "name": "_to",
          "type": "address"
        },
        {
          "internalType": "uint256",
          "name": "_amount",
          "type": "uint256"
        }
      ],
      "name": "getEtherFromTransfer",
      "outputs": [],
      "stateMutability": "nonpayable",
      "type": "function"
    },
    {
      "inputs": [],
      "name": "owner",
      "outputs": [
        {
          "internalType": "address",
          "name": "",
          "type": "address"
        }
      ],
      "stateMutability": "view",
      "type": "function"
    },
    {
      "inputs": [],
      "name": "showBalance",
      "outputs": [
        {
          "internalType": "uint256",
          "name": "",
          "type": "uint256"
        }
      ],
      "stateMutability": "view",
      "type": "function"
    }
  ],
  "transactionHash": "0xcd9104843c7232e78131db97e49056442850dc697668a52c083e23fe7c04d6a9",
  "args": [],
  "numDeployments": 4,
  "solcInputHash": "bd8368c1c99fdb8ee9d7651c6f42a972",
  "bytecode": "0x608060405234801561001057600080fd5b50600080546001600160a01b03191633179055610523806100326000396000f3fe6080604052600436106100705760003560e01c806381b2d07b1161004e57806381b2d07b146100f75780638da5cb5b1461010a578063a3c5a5db14610142578063ed88c68e1461016257600080fd5b806314ba7f5e1461007557806340fc7dd6146100975780634ee829e3146100b7575b600080fd5b34801561008157600080fd5b5061009561009036600461044d565b61016a565b005b3480156100a357600080fd5b506100956100b236600461044d565b610226565b3480156100c357600080fd5b506100e46100d2366004610479565b60016020526000908152604090205481565b6040519081526020015b60405180910390f35b34801561010357600080fd5b50476100e4565b34801561011657600080fd5b5060005461012a906001600160a01b031681565b6040516001600160a01b0390911681526020016100ee565b34801561014e57600080fd5b5061009561015d36600461044d565b61035d565b6100956103de565b6000546001600160a01b0316331461019d5760405162461bcd60e51b81526004016101949061049d565b60405180910390fd5b80804710156101be5760405162461bcd60e51b8152600401610194906104c0565b6040516000906001600160a01b0385169084156108fc0290859084818181858888f193505050509050806102205760405162461bcd60e51b81526020600482015260096024820152681cd95b990819985a5b60ba1b6044820152606401610194565b50505050565b6000546001600160a01b031633146102505760405162461bcd60e51b81526004016101949061049d565b80804710156102715760405162461bcd60e51b8152600401610194906104c0565b814710156102915760405162461bcd60e51b8152600401610194906104c0565b6000836001600160a01b03168360405160006040518083038185875af1925050503d80600081146102de576040519150601f19603f3d011682016040523d82523d6000602084013e6102e3565b606091505b50506040516001600160a01b03861681529091507f73da56297dbeec47f08545fdd45eed4ec3dfca48449a9453579da2a5f8359a6a9060200160405180910390a1806102205760405162461bcd60e51b81526020600482015260096024820152681cd95b9d0819985a5b60ba1b6044820152606401610194565b6000546001600160a01b031633146103875760405162461bcd60e51b81526004016101949061049d565b80804710156103a85760405162461bcd60e51b8152600401610194906104c0565b6040516001600160a01b0384169083156108fc029084906000818181858888f19350505050158015610220573d6000803e3d6000fd5b600034116104215760405162461bcd60e51b815260206004820152601060248201526f2737ba1022b737bab3b41022b43a32b960811b6044820152606401610194565b336000908152600160205260409020349055565b6001600160a01b038116811461044a57600080fd5b50565b6000806040838503121561046057600080fd5b823561046b81610435565b946020939093013593505050565b60006020828403121561048b57600080fd5b813561049681610435565b9392505050565b6020808252600990820152682737ba1027bbb732b960b91b604082015260600190565b602080825260139082015272496e737566666963656e742042616c616e636560681b60408201526060019056fea2646970667358221220af19ceab24b92f4762a9cfb8281af3b5c4cbb918917b616ce0f7888e4f087ec264736f6c63430008140033",
  "devdoc": {
    "kind": "dev",
    "methods": {},
    "version": 1
  },
  "userdoc": {
    "kind": "user",
    "methods": {},
    "version": 1
  },
  "storageLayout": {
    "storage": [
      {
        "astId": 3,
        "contract": "contracts/Donate.sol:Donate",
        "label": "owner",
        "offset": 0,
        "slot": "0",
        "type": "t_address"
      },
      {
        "astId": 7,
        "contract": "contracts/Donate.sol:Donate",
        "label": "donateAddress",
        "offset": 0,
        "slot": "1",
        "type": "t_mapping(t_address,t_uint256)"
      }
    ],
    "types": {
      "t_address": {
        "encoding": "inplace",
        "label": "address",
        "numberOfBytes": "20"
      },
      "t_mapping(t_address,t_uint256)": {
        "encoding": "mapping",
        "key": "t_address",
        "label": "mapping(address => uint256)",
        "numberOfBytes": "32",
        "value": "t_uint256"
      },
      "t_uint256": {
        "encoding": "inplace",
        "label": "uint256",
        "numberOfBytes": "32"
      }
    }
  }
}