{
  "address": "0x6b8AcB313683B03ED861Cd3504BAfe8001710818",
  "abi": [
    {
      "anonymous": false,
      "inputs": [],
      "name": "CallSuccess",
      "type": "event"
    },
    {
      "inputs": [],
      "name": "implemention",
      "outputs": [
        {
          "internalType": "address",
          "name": "",
          "type": "address"
        }
      ],
      "stateMutability": "view",
      "type": "function"
    },
    {
      "inputs": [],
      "name": "increment",
      "outputs": [
        {
          "internalType": "uint256",
          "name": "",
          "type": "uint256"
        }
      ],
      "stateMutability": "nonpayable",
      "type": "function"
    },
    {
      "inputs": [],
      "name": "x",
      "outputs": [
        {
          "internalType": "uint256",
          "name": "",
          "type": "uint256"
        }
      ],
      "stateMutability": "view",
      "type": "function"
    }
  ],
  "transactionHash": "0x82c15824a923f4dd6a5afe00a9214514530869f91fd45f39056663e37df7404b",
  "args": [],
  "numDeployments": 2,
  "solcInputHash": "f439c683e1df7f5ad71bcd5fbfada60d",
  "bytecode": "0x6080604052605a60015534801561001557600080fd5b50610123806100256000396000f3fe6080604052348015600f57600080fd5b5060043610603c5760003560e01c80630c55699c14604157806316418f8b14605c578063d09de08a146085575b600080fd5b604960015481565b6040519081526020015b60405180910390f35b600054606e906001600160a01b031681565b6040516001600160a01b0390911681526020016053565b60496040516000907fd4c1379b05055358f3fa6e4ccdfedb07a73d2b3698e95c42d8dc5838961737e3908290a16001805460bd9160c7565b6001819055919050565b8082018082111560e757634e487b7160e01b600052601160045260246000fd5b9291505056fea2646970667358221220eab6d28158e7469b1512abd195360cc4df1fa2c3676af5b95ee8e11b48666a4064736f6c63430008140033",
  "devdoc": {
    "kind": "dev",
    "methods": {},
    "version": 1
  },
  "userdoc": {
    "kind": "user",
    "methods": {},
    "version": 1
  },
  "storageLayout": {
    "storage": [
      {
        "astId": 124,
        "contract": "contracts/Logic.sol:Logic",
        "label": "implemention",
        "offset": 0,
        "slot": "0",
        "type": "t_address"
      },
      {
        "astId": 127,
        "contract": "contracts/Logic.sol:Logic",
        "label": "x",
        "offset": 0,
        "slot": "1",
        "type": "t_uint256"
      }
    ],
    "types": {
      "t_address": {
        "encoding": "inplace",
        "label": "address",
        "numberOfBytes": "20"
      },
      "t_uint256": {
        "encoding": "inplace",
        "label": "uint256",
        "numberOfBytes": "32"
      }
    }
  }
}