{
  "address": "0x86c66D19b87351c1AD7125889Bcb382f5baFABc7",
  "abi": [
    {
      "inputs": [
        {
          "internalType": "address",
          "name": "_implemention",
          "type": "address"
        }
      ],
      "stateMutability": "nonpayable",
      "type": "constructor"
    },
    {
      "anonymous": false,
      "inputs": [],
      "name": "CallSuccess",
      "type": "event"
    },
    {
      "stateMutability": "payable",
      "type": "fallback"
    },
    {
      "inputs": [],
      "name": "implementation",
      "outputs": [
        {
          "internalType": "address",
          "name": "",
          "type": "address"
        }
      ],
      "stateMutability": "view",
      "type": "function"
    },
    {
      "inputs": [],
      "name": "x",
      "outputs": [
        {
          "internalType": "uint256",
          "name": "",
          "type": "uint256"
        }
      ],
      "stateMutability": "view",
      "type": "function"
    },
    {
      "stateMutability": "payable",
      "type": "receive"
    }
  ],
  "transactionHash": "0x16490cb54bc2c320e5c1375970f908a1746b234bccb4b95958c548bd7cb9b1e4",
  "args": [
    "0x6b8AcB313683B03ED861Cd3504BAfe8001710818"
  ],
  "numDeployments": 3,
  "solcInputHash": "03d32b2fdd8466e2aaddaea30b8b14dc",
  "bytecode": "0x6080604052603260015534801561001557600080fd5b5060405161018838038061018883398101604081905261003491610059565b600080546001600160a01b0319166001600160a01b0392909216919091179055610089565b60006020828403121561006b57600080fd5b81516001600160a01b038116811461008257600080fd5b9392505050565b60f1806100976000396000f3fe60806040526004361060295760003560e01c80630c55699c14605f5780635c60da1b14608657602f565b36602f57005b600080546001600160a01b03169036908037600080366000845af43d6000803e808015605a573d6000f35b3d6000fd5b348015606a57600080fd5b50607360015481565b6040519081526020015b60405180910390f35b348015609157600080fd5b5060005460a4906001600160a01b031681565b6040516001600160a01b039091168152602001607d56fea2646970667358221220dcdcc28d48ee9901a1b1f8c3fa07bd5a4db8aa1da26577b3a6f7cf9c02689f7964736f6c63430008140033",
  "devdoc": {
    "kind": "dev",
    "methods": {},
    "version": 1
  },
  "userdoc": {
    "kind": "user",
    "methods": {},
    "version": 1
  },
  "storageLayout": {
    "storage": [
      {
        "astId": 82,
        "contract": "contracts/Proxy.sol:Proxy",
        "label": "implementation",
        "offset": 0,
        "slot": "0",
        "type": "t_address"
      },
      {
        "astId": 85,
        "contract": "contracts/Proxy.sol:Proxy",
        "label": "x",
        "offset": 0,
        "slot": "1",
        "type": "t_uint256"
      }
    ],
    "types": {
      "t_address": {
        "encoding": "inplace",
        "label": "address",
        "numberOfBytes": "20"
      },
      "t_uint256": {
        "encoding": "inplace",
        "label": "uint256",
        "numberOfBytes": "32"
      }
    }
  }
}