{
  "address": "0x4fae89803E7CcEdc28f6bAeA7Eb5aeD876Ec78C5",
  "abi": [
    {
      "inputs": [],
      "stateMutability": "nonpayable",
      "type": "constructor"
    },
    {
      "anonymous": false,
      "inputs": [
        {
          "indexed": false,
          "internalType": "uint256",
          "name": "amount",
          "type": "uint256"
        },
        {
          "indexed": false,
          "internalType": "uint256",
          "name": "gas",
          "type": "uint256"
        }
      ],
      "name": "Log",
      "type": "event"
    },
    {
      "inputs": [],
      "name": "deleteContract",
      "outputs": [],
      "stateMutability": "nonpayable",
      "type": "function"
    },
    {
      "inputs": [],
      "name": "getBalance",
      "outputs": [
        {
          "internalType": "uint256",
          "name": "",
          "type": "uint256"
        }
      ],
      "stateMutability": "view",
      "type": "function"
    },
    {
      "inputs": [],
      "name": "payForContract",
      "outputs": [],
      "stateMutability": "payable",
      "type": "function"
    },
    {
      "stateMutability": "payable",
      "type": "receive"
    }
  ],
  "transactionHash": "0x93af3eac0e044e18f0489be950b63c2b11500ca2c0a73f48fd950cfca14c37ad",
  "args": [],
  "numDeployments": 3,
  "solcInputHash": "3ad65914756eabdb9e83e1a795a80afb",
  "bytecode": "0x608060405234801561001057600080fd5b50600080546001600160a01b0319163317905561012f806100326000396000f3fe60806040526004361060345760003560e01c806312065fe014607a5780632ba284531460995780635a58cd4c14609b57600080fd5b366075577fbd0faddf87043dd749c1b9d4dca8a12589b8cb5e2106832111ce23f219b14367345a6040805192835260208301919091520160405180910390a1005b600080fd5b348015608557600080fd5b504760405190815260200160405180910390f35b005b34801560a657600080fd5b5060996000546001600160a01b0316331460f65760405162461bcd60e51b815260206004820152600d60248201526c2737ba103a34329027bbb732b960991b604482015260640160405180910390fd5b33fffea26469706673582212202b5fe2d6ca32638613e509116f60933e45058dfe2987c6571ca98ec31bd44fdd64736f6c63430008140033",
  "devdoc": {
    "kind": "dev",
    "methods": {},
    "version": 1
  },
  "userdoc": {
    "kind": "user",
    "methods": {},
    "version": 1
  },
  "storageLayout": {
    "storage": [
      {
        "astId": 9,
        "contract": "contracts/Receive.sol:Receive",
        "label": "owner",
        "offset": 0,
        "slot": "0",
        "type": "t_address"
      }
    ],
    "types": {
      "t_address": {
        "encoding": "inplace",
        "label": "address",
        "numberOfBytes": "20"
      }
    }
  }
}