{
  "address": "0x6642e25dC9a0bFD4861eCC1deEcAA1d23F244Ca8",
  "abi": [
    {
      "inputs": [],
      "stateMutability": "nonpayable",
      "type": "constructor"
    },
    {
      "anonymous": false,
      "inputs": [
        {
          "indexed": false,
          "internalType": "address",
          "name": "ads",
          "type": "address"
        },
        {
          "indexed": false,
          "internalType": "uint256",
          "name": "value",
          "type": "uint256"
        }
      ],
      "name": "ReceiveEth",
      "type": "event"
    },
    {
      "inputs": [
        {
          "internalType": "uint256",
          "name": "",
          "type": "uint256"
        }
      ],
      "name": "addressKeysArray",
      "outputs": [
        {
          "internalType": "address",
          "name": "",
          "type": "address"
        }
      ],
      "stateMutability": "view",
      "type": "function"
    },
    {
      "inputs": [],
      "name": "getAddressKeysArray",
      "outputs": [
        {
          "internalType": "address[]",
          "name": "",
          "type": "address[]"
        }
      ],
      "stateMutability": "view",
      "type": "function"
    },
    {
      "inputs": [],
      "name": "getBonus",
      "outputs": [
        {
          "internalType": "uint256",
          "name": "",
          "type": "uint256"
        }
      ],
      "stateMutability": "view",
      "type": "function"
    },
    {
      "inputs": [
        {
          "internalType": "address",
          "name": "key",
          "type": "address"
        }
      ],
      "name": "getLotteryMap",
      "outputs": [
        {
          "internalType": "uint256[]",
          "name": "",
          "type": "uint256[]"
        }
      ],
      "stateMutability": "view",
      "type": "function"
    },
    {
      "inputs": [],
      "name": "getOwner",
      "outputs": [
        {
          "internalType": "address",
          "name": "",
          "type": "address"
        }
      ],
      "stateMutability": "view",
      "type": "function"
    },
    {
      "inputs": [],
      "name": "getParticipantAddress",
      "outputs": [
        {
          "internalType": "address[]",
          "name": "",
          "type": "address[]"
        }
      ],
      "stateMutability": "view",
      "type": "function"
    },
    {
      "inputs": [],
      "name": "getParticipantNumber",
      "outputs": [
        {
          "internalType": "uint256",
          "name": "",
          "type": "uint256"
        }
      ],
      "stateMutability": "view",
      "type": "function"
    },
    {
      "inputs": [],
      "name": "getWinnerNumber",
      "outputs": [
        {
          "internalType": "uint256",
          "name": "",
          "type": "uint256"
        }
      ],
      "stateMutability": "view",
      "type": "function"
    },
    {
      "inputs": [
        {
          "internalType": "address",
          "name": "",
          "type": "address"
        },
        {
          "internalType": "uint256",
          "name": "",
          "type": "uint256"
        }
      ],
      "name": "lotteryMap",
      "outputs": [
        {
          "internalType": "uint256",
          "name": "",
          "type": "uint256"
        }
      ],
      "stateMutability": "view",
      "type": "function"
    },
    {
      "inputs": [],
      "name": "minimumParticipantNumber",
      "outputs": [
        {
          "internalType": "uint256",
          "name": "",
          "type": "uint256"
        }
      ],
      "stateMutability": "view",
      "type": "function"
    },
    {
      "inputs": [],
      "name": "minimumPrice",
      "outputs": [
        {
          "internalType": "uint256",
          "name": "",
          "type": "uint256"
        }
      ],
      "stateMutability": "view",
      "type": "function"
    },
    {
      "inputs": [
        {
          "internalType": "uint256",
          "name": "",
          "type": "uint256"
        }
      ],
      "name": "numbersArray",
      "outputs": [
        {
          "internalType": "uint256",
          "name": "",
          "type": "uint256"
        }
      ],
      "stateMutability": "view",
      "type": "function"
    },
    {
      "inputs": [
        {
          "internalType": "uint256",
          "name": "",
          "type": "uint256"
        }
      ],
      "name": "participantAddress",
      "outputs": [
        {
          "internalType": "address",
          "name": "",
          "type": "address"
        }
      ],
      "stateMutability": "view",
      "type": "function"
    },
    {
      "inputs": [],
      "name": "participantNumber",
      "outputs": [
        {
          "internalType": "uint256",
          "name": "",
          "type": "uint256"
        }
      ],
      "stateMutability": "view",
      "type": "function"
    },
    {
      "inputs": [
        {
          "internalType": "uint256[]",
          "name": "selectedNumber",
          "type": "uint256[]"
        }
      ],
      "name": "participate",
      "outputs": [],
      "stateMutability": "payable",
      "type": "function"
    },
    {
      "inputs": [],
      "name": "selectWinner",
      "outputs": [],
      "stateMutability": "nonpayable",
      "type": "function"
    },
    {
      "inputs": [],
      "name": "testGetWinnerNumber",
      "outputs": [],
      "stateMutability": "nonpayable",
      "type": "function"
    },
    {
      "inputs": [],
      "name": "transferFunds",
      "outputs": [],
      "stateMutability": "nonpayable",
      "type": "function"
    },
    {
      "inputs": [
        {
          "internalType": "uint256",
          "name": "",
          "type": "uint256"
        }
      ],
      "name": "winnerAddress",
      "outputs": [
        {
          "internalType": "address",
          "name": "",
          "type": "address"
        }
      ],
      "stateMutability": "view",
      "type": "function"
    },
    {
      "inputs": [],
      "name": "winnerNumber",
      "outputs": [
        {
          "internalType": "uint256",
          "name": "",
          "type": "uint256"
        }
      ],
      "stateMutability": "view",
      "type": "function"
    },
    {
      "inputs": [],
      "name": "withdraw",
      "outputs": [],
      "stateMutability": "nonpayable",
      "type": "function"
    },
    {
      "stateMutability": "payable",
      "type": "receive"
    }
  ],
  "transactionHash": "0x9e331af85f68eec843d67151bcefce243d845e5fdf0e78ff5d673e22909163c5",
  "args": [],
  "numDeployments": 12,
  "solcInputHash": "575e66191a3dc31fb6ea5ac7e94a85d3",
  "bytecode": "0x6101e0604052600160a0818152600260c052600360e05260046101005260056101205260066101405260076101605260086101805260096101a052600a6101c081905261004d929190610073565b50655af3107a4000600255600260035534801561006957600080fd5b50336080526100d8565b8280548282559060005260206000209081019282156100b3579160200282015b828111156100b3578251829060ff16905591602001919060010190610093565b506100bf9291506100c3565b5090565b5b808211156100bf57600081556001016100c4565b60805161109061010f6000396000818161029a01528181610410015281816106020152818161075e01526107f801526110906000f3fe60806040526004361061012e5760003560e01c8063893d20e8116100ab5780639abd9f541161006f5780639abd9f5414610342578063a86d2e1914610357578063b420ffc41461036c578063e0bc7e6d1461038c578063e5ad2984146103a1578063f2f9fa08146103c157600080fd5b8063893d20e81461028b5780638bdff161146102be5780638fc5c5e9146102d35780639468b2d3146102f55780639a118aa71461032257600080fd5b806350cb0d58116100f257806350cb0d58146101fc5780635544c15c146102115780635a9df2f8146102495780637f386b6c1461025f57806387e56de51461027557600080fd5b8063152206181461017257806333a99e04146101a55780633c68eb81146101bc5780633ccfd60b146101d15780633f54b033146101e657600080fd5b3661016d57604080513381523460208201527fefc0288202e432ade6bf71491d0001d7e389ad4f8e4e9c7aa038dd1a563efc60910160405180910390a1005b600080fd5b34801561017e57600080fd5b5061019261018d366004610dc2565b6103d4565b6040519081526020015b60405180910390f35b3480156101b157600080fd5b506101ba610405565b005b3480156101c857600080fd5b506101ba6105f7565b3480156101dd57600080fd5b506101ba610753565b3480156101f257600080fd5b5061019260085481565b34801561020857600080fd5b506101ba610843565b34801561021d57600080fd5b5061023161022c366004610dec565b61084b565b6040516001600160a01b03909116815260200161019c565b34801561025557600080fd5b5061019260045481565b34801561026b57600080fd5b5061019260025481565b34801561028157600080fd5b5061019260035481565b34801561029757600080fd5b507f0000000000000000000000000000000000000000000000000000000000000000610231565b3480156102ca57600080fd5b50600954610192565b3480156102df57600080fd5b506102e8610875565b60405161019c9190610e05565b34801561030157600080fd5b50610315610310366004610e52565b6108d7565b60405161019c9190610e74565b34801561032e57600080fd5b5061023161033d366004610dec565b610943565b34801561034e57600080fd5b506102e8610953565b34801561036357600080fd5b50600854610192565b34801561037857600080fd5b50610231610387366004610dec565b6109b3565b34801561039857600080fd5b50600454610192565b3480156103ad57600080fd5b506101926103bc366004610dec565b6109c3565b6101ba6103cf366004610ec2565b6109e4565b600560205281600052604060002081815481106103f057600080fd5b90600052602060002001600091509150505481565b336001600160a01b037f000000000000000000000000000000000000000000000000000000000000000016146104565760405162461bcd60e51b815260040161044d90610f80565b60405180910390fd5b60035460045410156104aa5760405162461bcd60e51b815260206004820152601860248201527f696e73756666696369656e74207061727469636970616e740000000000000000604482015260640161044d565b60006104b4610abe565b905060005b6006548110156105f357600060056000600684815481106104dc576104dc610fa7565b60009182526020808320909101546001600160a01b0316835282810193909352604091820190208054825181850281018501909352808352919290919083018282801561054857602002820191906000526020600020905b815481526020019060010190808311610534575b5050505050905060005b81518110156105de578382828151811061056e5761056e610fa7565b6020026020010151036105cc5760006006848154811061059057610590610fa7565b60009182526020808320909101548354600181018555938352912090910180546001600160a01b0319166001600160a01b039092169190911790555b806105d681610fd3565b915050610552565b505080806105eb90610fd3565b9150506104b9565b5050565b336001600160a01b037f0000000000000000000000000000000000000000000000000000000000000000161461063f5760405162461bcd60e51b815260040161044d90610f80565b6000471161068f5760405162461bcd60e51b815260206004820152601d60248201527f496e73756666696369656e7420636f6e74726163742062616c616e6365000000604482015260640161044d565b6000546106ca5760405162461bcd60e51b81526020600482015260096024820152682737903bb4b73732b960b91b604482015260640161044d565b60008054906106d98247611002565b905060005b60005481101561074e57600081815481106106fb576106fb610fa7565b60009182526020822001546040516001600160a01b039091169184156108fc02918591818181858888f1935050505015801561073b573d6000803e3d6000fd5b508061074681610fd3565b9150506106de565b505050565b336001600160a01b037f0000000000000000000000000000000000000000000000000000000000000000161461079b5760405162461bcd60e51b815260040161044d90610f80565b600047116107eb5760405162461bcd60e51b815260206004820152601d60248201527f496e73756666696369656e7420636f6e74726163742062616c616e6365000000604482015260640161044d565b6040516001600160a01b037f000000000000000000000000000000000000000000000000000000000000000016904780156108fc02916000818181858888f19350505050158015610840573d6000803e3d6000fd5b50565b610840610abe565b6000818154811061085b57600080fd5b6000918252602090912001546001600160a01b0316905081565b606060068054806020026020016040519081016040528092919081815260200182805480156108cd57602002820191906000526020600020905b81546001600160a01b031681526001909101906020018083116108af575b5050505050905090565b6001600160a01b03811660009081526005602090815260409182902080548351818402810184019094528084526060939283018282801561093757602002820191906000526020600020905b815481526020019060010190808311610923575b50505050509050919050565b6007818154811061085b57600080fd5b606060078054806020026020016040519081016040528092919081815260200182805480156108cd576020028201919060005260206000209081546001600160a01b031681526001909101906020018083116108af575050505050905090565b6006818154811061085b57600080fd5b600181815481106109d357600080fd5b600091825260209091200154905081565b80516002546109f39190611016565b341015610a425760405162461bcd60e51b815260206004820152601d60248201527f696e73756666696369656e742045746865722076616c75652073656e74000000604482015260640161044d565b6000610a4d33610b19565b90508015610aaa576007805460018101825560009182527fa66cc928b5edb82af9bd49922954155ab7b0942694bea4ce44661d9a8736c6880180546001600160a01b031916331790556004805491610aa483610fd3565b91905055505b610ab5338383610b82565b6105f347600955565b600080600a4442600454604051602001610aeb939291909283526020830191909152604082015260600190565b6040516020818303038152906040528051906020012060001c610b0e9190611033565b600881905592915050565b6000805b600654811015610b7957826001600160a01b031660068281548110610b4457610b44610fa7565b6000918252602090912001546001600160a01b031603610b675750600092915050565b80610b7181610fd3565b915050610b1d565b50600192915050565b8015610c04576001600160a01b03831660009081526005602090815260409091208351610bb192850190610d46565b50600680546001810182556000919091527ff652222313e28459528d920b65115c16c04f3efc82aaedc97be59f3f377c0d3f0180546001600160a01b0385166001600160a01b0319909116179055505050565b6001600160a01b038316600090815260056020908152604080832080548251818502810185019093528083529192909190830182828015610c6457602002820191906000526020600020905b815481526020019060010190808311610c50575b50505050509050600083518251610c7b9190611047565b67ffffffffffffffff811115610c9357610c93610eac565b604051908082528060200260200182016040528015610cbc578160200160208202803683370190505b50905060005b8251811015610d1457828181518110610cdd57610cdd610fa7565b6020026020010151828281518110610cf757610cf7610fa7565b602090810291909101015280610d0c81610fd3565b915050610cc2565b506001600160a01b03851660009081526005602090815260409091208251610d3e92840190610d46565b505050505050565b828054828255906000526020600020908101928215610d81579160200282015b82811115610d81578251825591602001919060010190610d66565b50610d8d929150610d91565b5090565b5b80821115610d8d5760008155600101610d92565b80356001600160a01b0381168114610dbd57600080fd5b919050565b60008060408385031215610dd557600080fd5b610dde83610da6565b946020939093013593505050565b600060208284031215610dfe57600080fd5b5035919050565b6020808252825182820181905260009190848201906040850190845b81811015610e465783516001600160a01b031683529284019291840191600101610e21565b50909695505050505050565b600060208284031215610e6457600080fd5b610e6d82610da6565b9392505050565b6020808252825182820181905260009190848201906040850190845b81811015610e4657835183529284019291840191600101610e90565b634e487b7160e01b600052604160045260246000fd5b60006020808385031215610ed557600080fd5b823567ffffffffffffffff80821115610eed57600080fd5b818501915085601f830112610f0157600080fd5b813581811115610f1357610f13610eac565b8060051b604051601f19603f83011681018181108582111715610f3857610f38610eac565b604052918252848201925083810185019188831115610f5657600080fd5b938501935b82851015610f7457843584529385019392850192610f5b565b98975050505050505050565b6020808252600d908201526c2737ba103a34329027bbb732b960991b604082015260600190565b634e487b7160e01b600052603260045260246000fd5b634e487b7160e01b600052601160045260246000fd5b600060018201610fe557610fe5610fbd565b5060010190565b634e487b7160e01b600052601260045260246000fd5b60008261101157611011610fec565b500490565b808202811582820484141761102d5761102d610fbd565b92915050565b60008261104257611042610fec565b500690565b8082018082111561102d5761102d610fbd56fea26469706673582212206619402f05418bff64f52117680ce73fe0c18a5a73d60e3c26b5a11ff407196d64736f6c63430008140033",
  "devdoc": {
    "author": "luohanxiong",
    "kind": "dev",
    "methods": {},
    "version": 1
  },
  "userdoc": {
    "kind": "user",
    "methods": {},
    "notice": "A smart contract that allows changing a state variable of the contract and tracking the changes It also allows the owner to withdraw the Ether in the contract",
    "version": 1
  },
  "storageLayout": {
    "storage": [
      {
        "astId": 538,
        "contract": "contracts/YourContract.sol:YourContract",
        "label": "winnerAddress",
        "offset": 0,
        "slot": "0",
        "type": "t_array(t_address)dyn_storage"
      },
      {
        "astId": 552,
        "contract": "contracts/YourContract.sol:YourContract",
        "label": "numbersArray",
        "offset": 0,
        "slot": "1",
        "type": "t_array(t_uint256)dyn_storage"
      },
      {
        "astId": 555,
        "contract": "contracts/YourContract.sol:YourContract",
        "label": "minimumPrice",
        "offset": 0,
        "slot": "2",
        "type": "t_uint256"
      },
      {
        "astId": 558,
        "contract": "contracts/YourContract.sol:YourContract",
        "label": "minimumParticipantNumber",
        "offset": 0,
        "slot": "3",
        "type": "t_uint256"
      },
      {
        "astId": 560,
        "contract": "contracts/YourContract.sol:YourContract",
        "label": "participantNumber",
        "offset": 0,
        "slot": "4",
        "type": "t_uint256"
      },
      {
        "astId": 565,
        "contract": "contracts/YourContract.sol:YourContract",
        "label": "lotteryMap",
        "offset": 0,
        "slot": "5",
        "type": "t_mapping(t_address,t_array(t_uint256)dyn_storage)"
      },
      {
        "astId": 568,
        "contract": "contracts/YourContract.sol:YourContract",
        "label": "addressKeysArray",
        "offset": 0,
        "slot": "6",
        "type": "t_array(t_address)dyn_storage"
      },
      {
        "astId": 571,
        "contract": "contracts/YourContract.sol:YourContract",
        "label": "participantAddress",
        "offset": 0,
        "slot": "7",
        "type": "t_array(t_address)dyn_storage"
      },
      {
        "astId": 573,
        "contract": "contracts/YourContract.sol:YourContract",
        "label": "winnerNumber",
        "offset": 0,
        "slot": "8",
        "type": "t_uint256"
      },
      {
        "astId": 575,
        "contract": "contracts/YourContract.sol:YourContract",
        "label": "bonus",
        "offset": 0,
        "slot": "9",
        "type": "t_uint256"
      }
    ],
    "types": {
      "t_address": {
        "encoding": "inplace",
        "label": "address",
        "numberOfBytes": "20"
      },
      "t_array(t_address)dyn_storage": {
        "base": "t_address",
        "encoding": "dynamic_array",
        "label": "address[]",
        "numberOfBytes": "32"
      },
      "t_array(t_uint256)dyn_storage": {
        "base": "t_uint256",
        "encoding": "dynamic_array",
        "label": "uint256[]",
        "numberOfBytes": "32"
      },
      "t_mapping(t_address,t_array(t_uint256)dyn_storage)": {
        "encoding": "mapping",
        "key": "t_address",
        "label": "mapping(address => uint256[])",
        "numberOfBytes": "32",
        "value": "t_array(t_uint256)dyn_storage"
      },
      "t_uint256": {
        "encoding": "inplace",
        "label": "uint256",
        "numberOfBytes": "32"
      }
    }
  }
}