{
  "address": "0xCF5Afe513bf6f48e59E062A64389A4a186D3850C",
  "abi": [
    {
      "inputs": [],
      "stateMutability": "nonpayable",
      "type": "constructor"
    },
    {
      "inputs": [
        {
          "internalType": "uint256",
          "name": "",
          "type": "uint256"
        }
      ],
      "name": "addressKeysArray",
      "outputs": [
        {
          "internalType": "address",
          "name": "",
          "type": "address"
        }
      ],
      "stateMutability": "view",
      "type": "function"
    },
    {
      "inputs": [
        {
          "internalType": "address",
          "name": "",
          "type": "address"
        },
        {
          "internalType": "uint256",
          "name": "",
          "type": "uint256"
        }
      ],
      "name": "lotteryMap",
      "outputs": [
        {
          "internalType": "uint256",
          "name": "",
          "type": "uint256"
        }
      ],
      "stateMutability": "view",
      "type": "function"
    },
    {
      "inputs": [],
      "name": "minimumParticipantNumber",
      "outputs": [
        {
          "internalType": "uint256",
          "name": "",
          "type": "uint256"
        }
      ],
      "stateMutability": "view",
      "type": "function"
    },
    {
      "inputs": [],
      "name": "minimumPrice",
      "outputs": [
        {
          "internalType": "uint256",
          "name": "",
          "type": "uint256"
        }
      ],
      "stateMutability": "view",
      "type": "function"
    },
    {
      "inputs": [
        {
          "internalType": "uint256",
          "name": "",
          "type": "uint256"
        }
      ],
      "name": "numbersArray",
      "outputs": [
        {
          "internalType": "uint256",
          "name": "",
          "type": "uint256"
        }
      ],
      "stateMutability": "view",
      "type": "function"
    },
    {
      "inputs": [],
      "name": "owner",
      "outputs": [
        {
          "internalType": "address",
          "name": "",
          "type": "address"
        }
      ],
      "stateMutability": "view",
      "type": "function"
    },
    {
      "inputs": [
        {
          "internalType": "uint256",
          "name": "",
          "type": "uint256"
        }
      ],
      "name": "participantAddress",
      "outputs": [
        {
          "internalType": "address",
          "name": "",
          "type": "address"
        }
      ],
      "stateMutability": "view",
      "type": "function"
    },
    {
      "inputs": [],
      "name": "participantNumber",
      "outputs": [
        {
          "internalType": "uint256",
          "name": "",
          "type": "uint256"
        }
      ],
      "stateMutability": "view",
      "type": "function"
    },
    {
      "inputs": [
        {
          "internalType": "uint256[]",
          "name": "selectedNumber",
          "type": "uint256[]"
        }
      ],
      "name": "participate",
      "outputs": [],
      "stateMutability": "payable",
      "type": "function"
    },
    {
      "inputs": [],
      "name": "selectWinner",
      "outputs": [],
      "stateMutability": "nonpayable",
      "type": "function"
    },
    {
      "inputs": [],
      "name": "testGetWinnerNumber",
      "outputs": [],
      "stateMutability": "nonpayable",
      "type": "function"
    },
    {
      "inputs": [],
      "name": "transferFunds",
      "outputs": [],
      "stateMutability": "nonpayable",
      "type": "function"
    },
    {
      "inputs": [
        {
          "internalType": "uint256",
          "name": "",
          "type": "uint256"
        }
      ],
      "name": "winnerAddress",
      "outputs": [
        {
          "internalType": "address",
          "name": "",
          "type": "address"
        }
      ],
      "stateMutability": "view",
      "type": "function"
    },
    {
      "inputs": [],
      "name": "winnerNumber",
      "outputs": [
        {
          "internalType": "uint256",
          "name": "",
          "type": "uint256"
        }
      ],
      "stateMutability": "view",
      "type": "function"
    },
    {
      "stateMutability": "payable",
      "type": "receive"
    }
  ],
  "transactionHash": "0x8160baf511b08d5234047b3f89cedabfd8406da65b8201b46b97f88d6a5955e8",
  "args": [],
  "numDeployments": 11,
  "solcInputHash": "87b2c2fbdcea8d225ddec43efe5b3d81",
  "bytecode": "0x6101e0604052600160a0818152600260c052600360e05260046101005260056101205260066101405260076101605260086101805260096101a052600a6101c081905261004d929190610073565b50655af3107a4000600255600260035534801561006957600080fd5b50336080526100d8565b8280548282559060005260206000209081019282156100b3579160200282015b828111156100b3578251829060ff16905591602001919060010190610093565b506100bf9291506100c3565b5090565b5b808211156100bf57600081556001016100c4565b608051610c5561010160003960008181610203015281816102d401526104e20152610c556000f3fe6080604052600436106100e15760003560e01c80637f386b6c1161007f5780639a118aa7116100595780639a118aa714610225578063b420ffc414610245578063e5ad298414610265578063f2f9fa081461028557600080fd5b80637f386b6c146101c557806387e56de5146101db5780638da5cb5b146101f157600080fd5b80633f54b033116100bb5780633f54b0331461014c57806350cb0d58146101625780635544c15c146101775780635a9df2f8146101af57600080fd5b806315220618146100ed57806333a99e04146101205780633c68eb811461013757600080fd5b366100e857005b600080fd5b3480156100f957600080fd5b5061010d610108366004610a47565b610298565b6040519081526020015b60405180910390f35b34801561012c57600080fd5b506101356102c9565b005b34801561014357600080fd5b506101356104d7565b34801561015857600080fd5b5061010d60085481565b34801561016e57600080fd5b50610135610618565b34801561018357600080fd5b50610197610192366004610a7f565b610623565b6040516001600160a01b039091168152602001610117565b3480156101bb57600080fd5b5061010d60045481565b3480156101d157600080fd5b5061010d60025481565b3480156101e757600080fd5b5061010d60035481565b3480156101fd57600080fd5b506101977f000000000000000000000000000000000000000000000000000000000000000081565b34801561023157600080fd5b50610197610240366004610a7f565b61064d565b34801561025157600080fd5b50610197610260366004610a7f565b61065d565b34801561027157600080fd5b5061010d610280366004610a7f565b61066d565b610135610293366004610aae565b61068e565b600560205281600052604060002081815481106102b457600080fd5b90600052602060002001600091509150505481565b336001600160a01b037f000000000000000000000000000000000000000000000000000000000000000016146103365760405162461bcd60e51b815260206004820152600d60248201526c2737ba103a34329027bbb732b960991b60448201526064015b60405180910390fd5b600354600454101561038a5760405162461bcd60e51b815260206004820152601860248201527f696e73756666696369656e74207061727469636970616e740000000000000000604482015260640161032d565b600061039461075f565b905060005b6006548110156104d357600060056000600684815481106103bc576103bc610b6c565b60009182526020808320909101546001600160a01b0316835282810193909352604091820190208054825181850281018501909352808352919290919083018282801561042857602002820191906000526020600020905b815481526020019060010190808311610414575b5050505050905060005b81518110156104be578382828151811061044e5761044e610b6c565b6020026020010151036104ac5760006006848154811061047057610470610b6c565b60009182526020808320909101548354600181018555938352912090910180546001600160a01b0319166001600160a01b039092169190911790555b806104b681610b98565b915050610432565b505080806104cb90610b98565b915050610399565b5050565b336001600160a01b037f0000000000000000000000000000000000000000000000000000000000000000161461053f5760405162461bcd60e51b815260206004820152600d60248201526c2737ba103a34329027bbb732b960991b604482015260640161032d565b6000471161058f5760405162461bcd60e51b815260206004820152601d60248201527f496e73756666696369656e7420636f6e74726163742062616c616e6365000000604482015260640161032d565b600080549061059e8247610bc7565b905060005b60005481101561061357600081815481106105c0576105c0610b6c565b60009182526020822001546040516001600160a01b039091169184156108fc02918591818181858888f19350505050158015610600573d6000803e3d6000fd5b508061060b81610b98565b9150506105a3565b505050565b61062061075f565b50565b6000818154811061063357600080fd5b6000918252602090912001546001600160a01b0316905081565b6007818154811061063357600080fd5b6006818154811061063357600080fd5b6001818154811061067d57600080fd5b600091825260209091200154905081565b805160025461069d9190610bdb565b3410156106ec5760405162461bcd60e51b815260206004820152601d60248201527f696e73756666696369656e742045746865722076616c75652073656e74000000604482015260640161032d565b60006106f7336107ba565b90508015610754576007805460018101825560009182527fa66cc928b5edb82af9bd49922954155ab7b0942694bea4ce44661d9a8736c6880180546001600160a01b03191633179055600480549161074e83610b98565b91905055505b6104d3338383610823565b600080600a444260045460405160200161078c939291909283526020830191909152604082015260600190565b6040516020818303038152906040528051906020012060001c6107af9190610bf8565b600881905592915050565b6000805b60065481101561081a57826001600160a01b0316600682815481106107e5576107e5610b6c565b6000918252602090912001546001600160a01b0316036108085750600092915050565b8061081281610b98565b9150506107be565b50600192915050565b80156108a5576001600160a01b03831660009081526005602090815260409091208351610852928501906109e7565b50600680546001810182556000919091527ff652222313e28459528d920b65115c16c04f3efc82aaedc97be59f3f377c0d3f0180546001600160a01b0385166001600160a01b0319909116179055505050565b6001600160a01b03831660009081526005602090815260408083208054825181850281018501909352808352919290919083018282801561090557602002820191906000526020600020905b8154815260200190600101908083116108f1575b5050505050905060008351825161091c9190610c0c565b67ffffffffffffffff81111561093457610934610a98565b60405190808252806020026020018201604052801561095d578160200160208202803683370190505b50905060005b82518110156109b55782818151811061097e5761097e610b6c565b602002602001015182828151811061099857610998610b6c565b6020908102919091010152806109ad81610b98565b915050610963565b506001600160a01b038516600090815260056020908152604090912082516109df928401906109e7565b505050505050565b828054828255906000526020600020908101928215610a22579160200282015b82811115610a22578251825591602001919060010190610a07565b50610a2e929150610a32565b5090565b5b80821115610a2e5760008155600101610a33565b60008060408385031215610a5a57600080fd5b82356001600160a01b0381168114610a7157600080fd5b946020939093013593505050565b600060208284031215610a9157600080fd5b5035919050565b634e487b7160e01b600052604160045260246000fd5b60006020808385031215610ac157600080fd5b823567ffffffffffffffff80821115610ad957600080fd5b818501915085601f830112610aed57600080fd5b813581811115610aff57610aff610a98565b8060051b604051601f19603f83011681018181108582111715610b2457610b24610a98565b604052918252848201925083810185019188831115610b4257600080fd5b938501935b82851015610b6057843584529385019392850192610b47565b98975050505050505050565b634e487b7160e01b600052603260045260246000fd5b634e487b7160e01b600052601160045260246000fd5b600060018201610baa57610baa610b82565b5060010190565b634e487b7160e01b600052601260045260246000fd5b600082610bd657610bd6610bb1565b500490565b8082028115828204841417610bf257610bf2610b82565b92915050565b600082610c0757610c07610bb1565b500690565b80820180821115610bf257610bf2610b8256fea2646970667358221220899d88bb2e0ffb6f141b2505747a9ff46353ff0bca3b6677fb2637754799983864736f6c63430008140033",
  "devdoc": {
    "author": "luohanxiong",
    "kind": "dev",
    "methods": {},
    "version": 1
  },
  "userdoc": {
    "kind": "user",
    "methods": {},
    "notice": "A smart contract that allows changing a state variable of the contract and tracking the changes It also allows the owner to withdraw the Ether in the contract",
    "version": 1
  },
  "storageLayout": {
    "storage": [
      {
        "astId": 538,
        "contract": "contracts/YourContract.sol:YourContract",
        "label": "winnerAddress",
        "offset": 0,
        "slot": "0",
        "type": "t_array(t_address)dyn_storage"
      },
      {
        "astId": 552,
        "contract": "contracts/YourContract.sol:YourContract",
        "label": "numbersArray",
        "offset": 0,
        "slot": "1",
        "type": "t_array(t_uint256)dyn_storage"
      },
      {
        "astId": 555,
        "contract": "contracts/YourContract.sol:YourContract",
        "label": "minimumPrice",
        "offset": 0,
        "slot": "2",
        "type": "t_uint256"
      },
      {
        "astId": 558,
        "contract": "contracts/YourContract.sol:YourContract",
        "label": "minimumParticipantNumber",
        "offset": 0,
        "slot": "3",
        "type": "t_uint256"
      },
      {
        "astId": 560,
        "contract": "contracts/YourContract.sol:YourContract",
        "label": "participantNumber",
        "offset": 0,
        "slot": "4",
        "type": "t_uint256"
      },
      {
        "astId": 565,
        "contract": "contracts/YourContract.sol:YourContract",
        "label": "lotteryMap",
        "offset": 0,
        "slot": "5",
        "type": "t_mapping(t_address,t_array(t_uint256)dyn_storage)"
      },
      {
        "astId": 568,
        "contract": "contracts/YourContract.sol:YourContract",
        "label": "addressKeysArray",
        "offset": 0,
        "slot": "6",
        "type": "t_array(t_address)dyn_storage"
      },
      {
        "astId": 571,
        "contract": "contracts/YourContract.sol:YourContract",
        "label": "participantAddress",
        "offset": 0,
        "slot": "7",
        "type": "t_array(t_address)dyn_storage"
      },
      {
        "astId": 573,
        "contract": "contracts/YourContract.sol:YourContract",
        "label": "winnerNumber",
        "offset": 0,
        "slot": "8",
        "type": "t_uint256"
      }
    ],
    "types": {
      "t_address": {
        "encoding": "inplace",
        "label": "address",
        "numberOfBytes": "20"
      },
      "t_array(t_address)dyn_storage": {
        "base": "t_address",
        "encoding": "dynamic_array",
        "label": "address[]",
        "numberOfBytes": "32"
      },
      "t_array(t_uint256)dyn_storage": {
        "base": "t_uint256",
        "encoding": "dynamic_array",
        "label": "uint256[]",
        "numberOfBytes": "32"
      },
      "t_mapping(t_address,t_array(t_uint256)dyn_storage)": {
        "encoding": "mapping",
        "key": "t_address",
        "label": "mapping(address => uint256[])",
        "numberOfBytes": "32",
        "value": "t_array(t_uint256)dyn_storage"
      },
      "t_uint256": {
        "encoding": "inplace",
        "label": "uint256",
        "numberOfBytes": "32"
      }
    }
  }
}