{
  "address": "0x3602Ba38f88bBB46C45AA3524ec982639F31af77",
  "abi": [
    {
      "inputs": [
        {
          "internalType": "uint256",
          "name": "subscriptionId",
          "type": "uint256"
        }
      ],
      "stateMutability": "nonpayable",
      "type": "constructor"
    },
    {
      "inputs": [
        {
          "internalType": "address",
          "name": "have",
          "type": "address"
        },
        {
          "internalType": "address",
          "name": "want",
          "type": "address"
        }
      ],
      "name": "OnlyCoordinatorCanFulfill",
      "type": "error"
    },
    {
      "inputs": [
        {
          "internalType": "address",
          "name": "have",
          "type": "address"
        },
        {
          "internalType": "address",
          "name": "owner",
          "type": "address"
        },
        {
          "internalType": "address",
          "name": "coordinator",
          "type": "address"
        }
      ],
      "name": "OnlyOwnerOrCoordinator",
      "type": "error"
    },
    {
      "inputs": [],
      "name": "ZeroAddress",
      "type": "error"
    },
    {
      "anonymous": false,
      "inputs": [
        {
          "indexed": false,
          "internalType": "address",
          "name": "vrfCoordinator",
          "type": "address"
        }
      ],
      "name": "CoordinatorSet",
      "type": "event"
    },
    {
      "anonymous": false,
      "inputs": [
        {
          "indexed": true,
          "internalType": "address",
          "name": "from",
          "type": "address"
        },
        {
          "indexed": true,
          "internalType": "address",
          "name": "to",
          "type": "address"
        }
      ],
      "name": "OwnershipTransferRequested",
      "type": "event"
    },
    {
      "anonymous": false,
      "inputs": [
        {
          "indexed": true,
          "internalType": "address",
          "name": "from",
          "type": "address"
        },
        {
          "indexed": true,
          "internalType": "address",
          "name": "to",
          "type": "address"
        }
      ],
      "name": "OwnershipTransferred",
      "type": "event"
    },
    {
      "inputs": [],
      "name": "acceptOwnership",
      "outputs": [],
      "stateMutability": "nonpayable",
      "type": "function"
    },
    {
      "inputs": [
        {
          "internalType": "uint256",
          "name": "",
          "type": "uint256"
        }
      ],
      "name": "addressKeysArray",
      "outputs": [
        {
          "internalType": "address",
          "name": "",
          "type": "address"
        }
      ],
      "stateMutability": "view",
      "type": "function"
    },
    {
      "inputs": [],
      "name": "getRandomNumber",
      "outputs": [
        {
          "internalType": "uint256",
          "name": "requestId",
          "type": "uint256"
        }
      ],
      "stateMutability": "nonpayable",
      "type": "function"
    },
    {
      "inputs": [
        {
          "internalType": "address",
          "name": "",
          "type": "address"
        },
        {
          "internalType": "uint256",
          "name": "",
          "type": "uint256"
        }
      ],
      "name": "lotteryMap",
      "outputs": [
        {
          "internalType": "uint256",
          "name": "",
          "type": "uint256"
        }
      ],
      "stateMutability": "view",
      "type": "function"
    },
    {
      "inputs": [],
      "name": "lotteryNumber",
      "outputs": [
        {
          "internalType": "uint256",
          "name": "",
          "type": "uint256"
        }
      ],
      "stateMutability": "view",
      "type": "function"
    },
    {
      "inputs": [],
      "name": "minimumParticipantNumber",
      "outputs": [
        {
          "internalType": "uint256",
          "name": "",
          "type": "uint256"
        }
      ],
      "stateMutability": "view",
      "type": "function"
    },
    {
      "inputs": [],
      "name": "minimumPrice",
      "outputs": [
        {
          "internalType": "uint256",
          "name": "",
          "type": "uint256"
        }
      ],
      "stateMutability": "view",
      "type": "function"
    },
    {
      "inputs": [
        {
          "internalType": "uint256",
          "name": "",
          "type": "uint256"
        }
      ],
      "name": "numbersArray",
      "outputs": [
        {
          "internalType": "uint256",
          "name": "",
          "type": "uint256"
        }
      ],
      "stateMutability": "view",
      "type": "function"
    },
    {
      "inputs": [],
      "name": "owner",
      "outputs": [
        {
          "internalType": "address",
          "name": "",
          "type": "address"
        }
      ],
      "stateMutability": "view",
      "type": "function"
    },
    {
      "inputs": [
        {
          "internalType": "uint256",
          "name": "",
          "type": "uint256"
        }
      ],
      "name": "participantAddress",
      "outputs": [
        {
          "internalType": "address",
          "name": "",
          "type": "address"
        }
      ],
      "stateMutability": "view",
      "type": "function"
    },
    {
      "inputs": [],
      "name": "participantNumber",
      "outputs": [
        {
          "internalType": "uint256",
          "name": "",
          "type": "uint256"
        }
      ],
      "stateMutability": "view",
      "type": "function"
    },
    {
      "inputs": [
        {
          "internalType": "uint256[]",
          "name": "selectedNumber",
          "type": "uint256[]"
        }
      ],
      "name": "participate",
      "outputs": [],
      "stateMutability": "payable",
      "type": "function"
    },
    {
      "inputs": [
        {
          "internalType": "uint256",
          "name": "requestId",
          "type": "uint256"
        },
        {
          "internalType": "uint256[]",
          "name": "randomWords",
          "type": "uint256[]"
        }
      ],
      "name": "rawFulfillRandomWords",
      "outputs": [],
      "stateMutability": "nonpayable",
      "type": "function"
    },
    {
      "inputs": [],
      "name": "s_vrfCoordinator",
      "outputs": [
        {
          "internalType": "contract IVRFCoordinatorV2Plus",
          "name": "",
          "type": "address"
        }
      ],
      "stateMutability": "view",
      "type": "function"
    },
    {
      "inputs": [],
      "name": "selectWinner",
      "outputs": [],
      "stateMutability": "nonpayable",
      "type": "function"
    },
    {
      "inputs": [
        {
          "internalType": "address",
          "name": "_vrfCoordinator",
          "type": "address"
        }
      ],
      "name": "setCoordinator",
      "outputs": [],
      "stateMutability": "nonpayable",
      "type": "function"
    },
    {
      "inputs": [],
      "name": "test",
      "outputs": [],
      "stateMutability": "payable",
      "type": "function"
    },
    {
      "inputs": [],
      "name": "transferFunds",
      "outputs": [],
      "stateMutability": "nonpayable",
      "type": "function"
    },
    {
      "inputs": [
        {
          "internalType": "address",
          "name": "to",
          "type": "address"
        }
      ],
      "name": "transferOwnership",
      "outputs": [],
      "stateMutability": "nonpayable",
      "type": "function"
    },
    {
      "inputs": [
        {
          "internalType": "uint256",
          "name": "",
          "type": "uint256"
        }
      ],
      "name": "winnerAddress",
      "outputs": [
        {
          "internalType": "address",
          "name": "",
          "type": "address"
        }
      ],
      "stateMutability": "view",
      "type": "function"
    },
    {
      "inputs": [],
      "name": "winnerNumber",
      "outputs": [
        {
          "internalType": "uint256",
          "name": "",
          "type": "uint256"
        }
      ],
      "stateMutability": "view",
      "type": "function"
    },
    {
      "stateMutability": "payable",
      "type": "receive"
    }
  ],
  "transactionHash": "0x248360cee631032b5dec16f6713e52567200f97a310c21c1891c3ab799cb0e17",
  "args": [
    "7878634244574380340272734396188844621429473139141556704229623362247097517479"
  ],
  "numDeployments": 3,
  "solcInputHash": "f5bd1796df5b6816a7565558c2035785",
  "bytecode": "0x6101c060405260016080908152600260a052600360c052600460e0819052600561010052600661012052600761014052600861016052600961018052600a6101a08190526200004f929062000289565b50655af3107a40006005556002600655600d80546001600160a01b031916739ddfaca8183c41ad55329bdeed9f6a8d53168b1b1790557f787d74caea10b2b357790d5b5247c2f63d1d91572a9846f780606e4d953677ae600e55600f80546601000300009c406001600160501b0319909116179055348015620000d157600080fd5b506040516200151a3803806200151a833981016040819052620000f491620002f5565b600d546001600160a01b03163380600081620001575760405162461bcd60e51b815260206004820152601860248201527f43616e6e6f7420736574206f776e657220746f207a65726f000000000000000060448201526064015b60405180910390fd5b600080546001600160a01b0319166001600160a01b03848116919091179091558116156200018a576200018a81620001de565b5050506001600160a01b038116620001b55760405163d92e233d60e01b815260040160405180910390fd5b600280546001600160a01b0319166001600160a01b0392909216919091179055600c556200030f565b336001600160a01b03821603620002385760405162461bcd60e51b815260206004820152601760248201527f43616e6e6f74207472616e7366657220746f2073656c6600000000000000000060448201526064016200014e565b600180546001600160a01b0319166001600160a01b0383811691821790925560008054604051929316917fed8889f560326eb138920d842192f0eb3dd22b4f139c87a2c57538e05bae12789190a350565b828054828255906000526020600020908101928215620002cc579160200282015b82811115620002cc578251829060ff16905591602001919060010190620002aa565b50620002da929150620002de565b5090565b5b80821115620002da5760008155600101620002df565b6000602082840312156200030857600080fd5b5051919050565b6111fb806200031f6000396000f3fe60806040526004361061012e5760003560e01c80638da5cb5b116100ab578063b420ffc41161006f578063b420ffc4146102f2578063dbdff2c114610312578063e5ad298414610327578063f2f9fa0814610347578063f2fde38b1461035a578063f8a8fd6d1461037a57600080fd5b80638da5cb5b1461025e5780638ea981171461027c5780639a118aa71461029c5780639eccacf6146102bc578063aa103e44146102dc57600080fd5b80635544c15c116100f25780635544c15c146101cf5780635a9df2f81461020757806379ba50971461021d5780637f386b6c1461023257806387e56de51461024857600080fd5b8063152206181461013a5780631fe543e31461016d57806333a99e041461018f5780633c68eb81146101a45780633f54b033146101b957600080fd5b3661013557005b600080fd5b34801561014657600080fd5b5061015a610155366004610ea5565b610382565b6040519081526020015b60405180910390f35b34801561017957600080fd5b5061018d610188366004610ecf565b6103b3565b005b34801561019b57600080fd5b5061018d610408565b3480156101b057600080fd5b5061018d6105a7565b3480156101c557600080fd5b5061015a60105481565b3480156101db57600080fd5b506101ef6101ea366004610f4e565b61067b565b6040516001600160a01b039091168152602001610164565b34801561021357600080fd5b5061015a60085481565b34801561022957600080fd5b5061018d6106a5565b34801561023e57600080fd5b5061015a60055481565b34801561025457600080fd5b5061015a60065481565b34801561026a57600080fd5b506000546001600160a01b03166101ef565b34801561028857600080fd5b5061018d610297366004610f67565b61074f565b3480156102a857600080fd5b506101ef6102b7366004610f4e565b610841565b3480156102c857600080fd5b506002546101ef906001600160a01b031681565b3480156102e857600080fd5b5061015a60075481565b3480156102fe57600080fd5b506101ef61030d366004610f4e565b610851565b34801561031e57600080fd5b5061015a610861565b34801561033357600080fd5b5061015a610342366004610f4e565b610945565b61018d610355366004610f9f565b610966565b34801561036657600080fd5b5061018d610375366004610f67565b610a3b565b61018d610a4c565b6009602052816000526040600020818154811061039e57600080fd5b90600052602060002001600091509150505481565b6002546001600160a01b031633146103f85760025460405163073e64fd60e21b81523360048201526001600160a01b0390911660248201526044015b60405180910390fd5b610403838383610a54565b505050565b600654600854101561045c5760405162461bcd60e51b815260206004820152601860248201527f696e73756666696369656e74207061727469636970616e74000000000000000060448201526064016103ef565b610464610861565b5060005b600a548110156105a457600060096000600a848154811061048b5761048b61105d565b60009182526020808320909101546001600160a01b031683528281019390935260409182019020805482518185028101850190935280835291929091908301828280156104f757602002820191906000526020600020905b8154815260200190600101908083116104e3575b5050505050905060005b815181101561058f5760105482828151811061051f5761051f61105d565b60200260200101510361057d576003600a84815481106105415761054161105d565b60009182526020808320909101548354600181018555938352912090910180546001600160a01b0319166001600160a01b039092169190911790555b8061058781611089565b915050610501565b5050808061059c90611089565b915050610468565b50565b600047116105f75760405162461bcd60e51b815260206004820152601d60248201527f496e73756666696369656e7420636f6e74726163742062616c616e636500000060448201526064016103ef565b600354600061060682476110b8565b905060005b60035481101561040357600381815481106106285761062861105d565b60009182526020822001546040516001600160a01b039091169184156108fc02918591818181858888f19350505050158015610668573d6000803e3d6000fd5b508061067381611089565b91505061060b565b6003818154811061068b57600080fd5b6000918252602090912001546001600160a01b0316905081565b6001546001600160a01b031633146106f85760405162461bcd60e51b815260206004820152601660248201527526bab9ba10313290383937b837b9b2b21037bbb732b960511b60448201526064016103ef565b60008054336001600160a01b0319808316821784556001805490911690556040516001600160a01b0390921692909183917f8be0079c531659141344cd1fd0a4f28419497f9722a3daafe3b4186f6b6457e091a350565b6000546001600160a01b0316331480159061077557506002546001600160a01b03163314155b156107c6573361078d6000546001600160a01b031690565b60025460405163061db9c160e01b81526001600160a01b03938416600482015291831660248301529190911660448201526064016103ef565b6001600160a01b0381166107ed5760405163d92e233d60e01b815260040160405180910390fd5b600280546001600160a01b0319166001600160a01b0383169081179091556040519081527fd1a6a14209a385a964d036e404cb5cfb71f4000cdb03c9366292430787261be69060200160405180910390a150565b600b818154811061068b57600080fd5b600a818154811061068b57600080fd5b6002546040805160c081018252600e548152600c54602080830191909152600f5461ffff6401000000008204168385015263ffffffff808216606085015266010000000000009091041660808301528251908101909252600182526000926001600160a01b031691639b1c385e919060a08201906108de90610a8d565b8152506040518263ffffffff1660e01b81526004016108fd91906110cc565b6020604051808303816000875af115801561091c573d6000803e3d6000fd5b505050506040513d601f19601f820116820180604052508101906109409190611168565b905090565b6004818154811061095557600080fd5b600091825260209091200154905081565b80516005546109759190611181565b3410156109c45760405162461bcd60e51b815260206004820152601d60248201527f696e73756666696369656e742045746865722076616c75652073656e7400000060448201526064016103ef565b60006109cf33610afe565b90508015610a2c57600b805460018101825560009182527f0175b7a638427703f0dbe7bb9bbf987a2551717b34e79f33b5b1008d1fa01db90180546001600160a01b031916331790556008805491610a2683611089565b91905055505b610a37338383610b67565b5050565b610a43610d2b565b6105a481610d80565b6105a4610861565b601482826000818110610a6957610a6961105d565b90506020020135610a7a919061119e565b610a859060016111b2565b601055505050565b60607f92fd13387c7fe7befbc38d303d6468778fb9731bc4583f17d92989c6fcfdeaaa82604051602401610ac691511515815260200190565b60408051601f198184030181529190526020810180516001600160e01b03166001600160e01b03199093169290921790915292915050565b6000805b600a54811015610b5e57826001600160a01b0316600a8281548110610b2957610b2961105d565b6000918252602090912001546001600160a01b031603610b4c5750600092915050565b80610b5681611089565b915050610b02565b50600192915050565b8015610be9576001600160a01b03831660009081526009602090815260409091208351610b9692850190610e29565b50600a80546001810182556000919091527fc65a7bb8d6351c1cf70c95a316cc6a92839c986682d98bc35f958f4883f9d2a80180546001600160a01b0385166001600160a01b0319909116179055505050565b6001600160a01b038316600090815260096020908152604080832080548251818502810185019093528083529192909190830182828015610c4957602002820191906000526020600020905b815481526020019060010190808311610c35575b50505050509050600083518251610c6091906111b2565b67ffffffffffffffff811115610c7857610c78610f89565b604051908082528060200260200182016040528015610ca1578160200160208202803683370190505b50905060005b8251811015610cf957828181518110610cc257610cc261105d565b6020026020010151828281518110610cdc57610cdc61105d565b602090810291909101015280610cf181611089565b915050610ca7565b506001600160a01b03851660009081526009602090815260409091208251610d2392840190610e29565b505050505050565b6000546001600160a01b03163314610d7e5760405162461bcd60e51b815260206004820152601660248201527527b7363c9031b0b63630b1363290313c9037bbb732b960511b60448201526064016103ef565b565b336001600160a01b03821603610dd85760405162461bcd60e51b815260206004820152601760248201527f43616e6e6f74207472616e7366657220746f2073656c6600000000000000000060448201526064016103ef565b600180546001600160a01b0319166001600160a01b0383811691821790925560008054604051929316917fed8889f560326eb138920d842192f0eb3dd22b4f139c87a2c57538e05bae12789190a350565b828054828255906000526020600020908101928215610e64579160200282015b82811115610e64578251825591602001919060010190610e49565b50610e70929150610e74565b5090565b5b80821115610e705760008155600101610e75565b80356001600160a01b0381168114610ea057600080fd5b919050565b60008060408385031215610eb857600080fd5b610ec183610e89565b946020939093013593505050565b600080600060408486031215610ee457600080fd5b83359250602084013567ffffffffffffffff80821115610f0357600080fd5b818601915086601f830112610f1757600080fd5b813581811115610f2657600080fd5b8760208260051b8501011115610f3b57600080fd5b6020830194508093505050509250925092565b600060208284031215610f6057600080fd5b5035919050565b600060208284031215610f7957600080fd5b610f8282610e89565b9392505050565b634e487b7160e01b600052604160045260246000fd5b60006020808385031215610fb257600080fd5b823567ffffffffffffffff80821115610fca57600080fd5b818501915085601f830112610fde57600080fd5b813581811115610ff057610ff0610f89565b8060051b604051601f19603f8301168101818110858211171561101557611015610f89565b60405291825284820192508381018501918883111561103357600080fd5b938501935b8285101561105157843584529385019392850192611038565b98975050505050505050565b634e487b7160e01b600052603260045260246000fd5b634e487b7160e01b600052601160045260246000fd5b60006001820161109b5761109b611073565b5060010190565b634e487b7160e01b600052601260045260246000fd5b6000826110c7576110c76110a2565b500490565b6000602080835283518184015280840151604084015261ffff6040850151166060840152606084015163ffffffff80821660808601528060808701511660a0860152505060a084015160c08085015280518060e086015260005b818110156111435782810184015186820161010001528301611126565b506101009250600083828701015282601f19601f830116860101935050505092915050565b60006020828403121561117a57600080fd5b5051919050565b808202811582820484141761119857611198611073565b92915050565b6000826111ad576111ad6110a2565b500690565b808201808211156111985761119861107356fea264697066735822122025901244e5cd012f36f9890d703378b84ae9d668ba4448d5756295595bba07d564736f6c63430008140033",
  "devdoc": {
    "author": "luohanxiong",
    "kind": "dev",
    "methods": {},
    "version": 1
  },
  "userdoc": {
    "kind": "user",
    "methods": {
      "acceptOwnership()": {
        "notice": "Allows an ownership transfer to be completed by the recipient."
      },
      "owner()": {
        "notice": "Get the current owner"
      },
      "setCoordinator(address)": {
        "notice": "Sets the VRF Coordinator addressThis method should only be callable by the coordinator or contract owner"
      },
      "transferOwnership(address)": {
        "notice": "Allows an owner to begin transferring ownership to a new address."
      }
    },
    "notice": "A smart contract that allows changing a state variable of the contract and tracking the changes It also allows the owner to withdraw the Ether in the contract",
    "version": 1
  },
  "storageLayout": {
    "storage": [
      {
        "astId": 29,
        "contract": "contracts/YourContract.sol:YourContract",
        "label": "s_owner",
        "offset": 0,
        "slot": "0",
        "type": "t_address"
      },
      {
        "astId": 31,
        "contract": "contracts/YourContract.sol:YourContract",
        "label": "s_pendingOwner",
        "offset": 0,
        "slot": "1",
        "type": "t_address"
      },
      {
        "astId": 231,
        "contract": "contracts/YourContract.sol:YourContract",
        "label": "s_vrfCoordinator",
        "offset": 0,
        "slot": "2",
        "type": "t_contract(IVRFCoordinatorV2Plus)380"
      },
      {
        "astId": 538,
        "contract": "contracts/YourContract.sol:YourContract",
        "label": "winnerAddress",
        "offset": 0,
        "slot": "3",
        "type": "t_array(t_address)dyn_storage"
      },
      {
        "astId": 552,
        "contract": "contracts/YourContract.sol:YourContract",
        "label": "numbersArray",
        "offset": 0,
        "slot": "4",
        "type": "t_array(t_uint256)dyn_storage"
      },
      {
        "astId": 555,
        "contract": "contracts/YourContract.sol:YourContract",
        "label": "minimumPrice",
        "offset": 0,
        "slot": "5",
        "type": "t_uint256"
      },
      {
        "astId": 558,
        "contract": "contracts/YourContract.sol:YourContract",
        "label": "minimumParticipantNumber",
        "offset": 0,
        "slot": "6",
        "type": "t_uint256"
      },
      {
        "astId": 560,
        "contract": "contracts/YourContract.sol:YourContract",
        "label": "lotteryNumber",
        "offset": 0,
        "slot": "7",
        "type": "t_uint256"
      },
      {
        "astId": 562,
        "contract": "contracts/YourContract.sol:YourContract",
        "label": "participantNumber",
        "offset": 0,
        "slot": "8",
        "type": "t_uint256"
      },
      {
        "astId": 567,
        "contract": "contracts/YourContract.sol:YourContract",
        "label": "lotteryMap",
        "offset": 0,
        "slot": "9",
        "type": "t_mapping(t_address,t_array(t_uint256)dyn_storage)"
      },
      {
        "astId": 570,
        "contract": "contracts/YourContract.sol:YourContract",
        "label": "addressKeysArray",
        "offset": 0,
        "slot": "10",
        "type": "t_array(t_address)dyn_storage"
      },
      {
        "astId": 573,
        "contract": "contracts/YourContract.sol:YourContract",
        "label": "participantAddress",
        "offset": 0,
        "slot": "11",
        "type": "t_array(t_address)dyn_storage"
      },
      {
        "astId": 575,
        "contract": "contracts/YourContract.sol:YourContract",
        "label": "s_subscriptionId",
        "offset": 0,
        "slot": "12",
        "type": "t_uint256"
      },
      {
        "astId": 578,
        "contract": "contracts/YourContract.sol:YourContract",
        "label": "vrfCoordinator",
        "offset": 0,
        "slot": "13",
        "type": "t_address"
      },
      {
        "astId": 581,
        "contract": "contracts/YourContract.sol:YourContract",
        "label": "s_keyHash",
        "offset": 0,
        "slot": "14",
        "type": "t_bytes32"
      },
      {
        "astId": 584,
        "contract": "contracts/YourContract.sol:YourContract",
        "label": "callbackGasLimit",
        "offset": 0,
        "slot": "15",
        "type": "t_uint32"
      },
      {
        "astId": 587,
        "contract": "contracts/YourContract.sol:YourContract",
        "label": "requestConfirmations",
        "offset": 4,
        "slot": "15",
        "type": "t_uint16"
      },
      {
        "astId": 590,
        "contract": "contracts/YourContract.sol:YourContract",
        "label": "numWords",
        "offset": 6,
        "slot": "15",
        "type": "t_uint32"
      },
      {
        "astId": 592,
        "contract": "contracts/YourContract.sol:YourContract",
        "label": "winnerNumber",
        "offset": 0,
        "slot": "16",
        "type": "t_uint256"
      }
    ],
    "types": {
      "t_address": {
        "encoding": "inplace",
        "label": "address",
        "numberOfBytes": "20"
      },
      "t_array(t_address)dyn_storage": {
        "base": "t_address",
        "encoding": "dynamic_array",
        "label": "address[]",
        "numberOfBytes": "32"
      },
      "t_array(t_uint256)dyn_storage": {
        "base": "t_uint256",
        "encoding": "dynamic_array",
        "label": "uint256[]",
        "numberOfBytes": "32"
      },
      "t_bytes32": {
        "encoding": "inplace",
        "label": "bytes32",
        "numberOfBytes": "32"
      },
      "t_contract(IVRFCoordinatorV2Plus)380": {
        "encoding": "inplace",
        "label": "contract IVRFCoordinatorV2Plus",
        "numberOfBytes": "20"
      },
      "t_mapping(t_address,t_array(t_uint256)dyn_storage)": {
        "encoding": "mapping",
        "key": "t_address",
        "label": "mapping(address => uint256[])",
        "numberOfBytes": "32",
        "value": "t_array(t_uint256)dyn_storage"
      },
      "t_uint16": {
        "encoding": "inplace",
        "label": "uint16",
        "numberOfBytes": "2"
      },
      "t_uint256": {
        "encoding": "inplace",
        "label": "uint256",
        "numberOfBytes": "32"
      },
      "t_uint32": {
        "encoding": "inplace",
        "label": "uint32",
        "numberOfBytes": "4"
      }
    }
  }
}